{
  "contractName": "MyToken",
  "abi": [
    {
      "inputs": [],
      "stateMutability": "nonpayable",
      "type": "constructor"
    },
    {
      "anonymous": false,
      "inputs": [
        {
          "indexed": true,
          "internalType": "address",
          "name": "owner",
          "type": "address"
        },
        {
          "indexed": true,
          "internalType": "address",
          "name": "approved",
          "type": "address"
        },
        {
          "indexed": true,
          "internalType": "uint256",
          "name": "tokenId",
          "type": "uint256"
        }
      ],
      "name": "Approval",
      "type": "event"
    },
    {
      "anonymous": false,
      "inputs": [
        {
          "indexed": true,
          "internalType": "address",
          "name": "owner",
          "type": "address"
        },
        {
          "indexed": true,
          "internalType": "address",
          "name": "operator",
          "type": "address"
        },
        {
          "indexed": false,
          "internalType": "bool",
          "name": "approved",
          "type": "bool"
        }
      ],
      "name": "ApprovalForAll",
      "type": "event"
    },
    {
      "anonymous": false,
      "inputs": [
        {
          "indexed": true,
          "internalType": "address",
          "name": "previousOwner",
          "type": "address"
        },
        {
          "indexed": true,
          "internalType": "address",
          "name": "newOwner",
          "type": "address"
        }
      ],
      "name": "OwnershipTransferred",
      "type": "event"
    },
    {
      "anonymous": false,
      "inputs": [
        {
          "indexed": false,
          "internalType": "address",
          "name": "account",
          "type": "address"
        }
      ],
      "name": "Paused",
      "type": "event"
    },
    {
      "anonymous": false,
      "inputs": [
        {
          "indexed": true,
          "internalType": "address",
          "name": "from",
          "type": "address"
        },
        {
          "indexed": true,
          "internalType": "address",
          "name": "to",
          "type": "address"
        },
        {
          "indexed": true,
          "internalType": "uint256",
          "name": "tokenId",
          "type": "uint256"
        }
      ],
      "name": "Transfer",
      "type": "event"
    },
    {
      "anonymous": false,
      "inputs": [
        {
          "indexed": false,
          "internalType": "address",
          "name": "account",
          "type": "address"
        }
      ],
      "name": "Unpaused",
      "type": "event"
    },
    {
      "inputs": [
        {
          "internalType": "address",
          "name": "to",
          "type": "address"
        },
        {
          "internalType": "uint256",
          "name": "tokenId",
          "type": "uint256"
        }
      ],
      "name": "approve",
      "outputs": [],
      "stateMutability": "nonpayable",
      "type": "function"
    },
    {
      "inputs": [
        {
          "internalType": "address",
          "name": "owner",
          "type": "address"
        }
      ],
      "name": "balanceOf",
      "outputs": [
        {
          "internalType": "uint256",
          "name": "",
          "type": "uint256"
        }
      ],
      "stateMutability": "view",
      "type": "function"
    },
    {
      "inputs": [
        {
          "internalType": "uint256",
          "name": "tokenId",
          "type": "uint256"
        }
      ],
      "name": "getApproved",
      "outputs": [
        {
          "internalType": "address",
          "name": "",
          "type": "address"
        }
      ],
      "stateMutability": "view",
      "type": "function"
    },
    {
      "inputs": [
        {
          "internalType": "address",
          "name": "owner",
          "type": "address"
        },
        {
          "internalType": "address",
          "name": "operator",
          "type": "address"
        }
      ],
      "name": "isApprovedForAll",
      "outputs": [
        {
          "internalType": "bool",
          "name": "",
          "type": "bool"
        }
      ],
      "stateMutability": "view",
      "type": "function"
    },
    {
      "inputs": [],
      "name": "name",
      "outputs": [
        {
          "internalType": "string",
          "name": "",
          "type": "string"
        }
      ],
      "stateMutability": "view",
      "type": "function"
    },
    {
      "inputs": [],
      "name": "owner",
      "outputs": [
        {
          "internalType": "address",
          "name": "",
          "type": "address"
        }
      ],
      "stateMutability": "view",
      "type": "function"
    },
    {
      "inputs": [
        {
          "internalType": "uint256",
          "name": "tokenId",
          "type": "uint256"
        }
      ],
      "name": "ownerOf",
      "outputs": [
        {
          "internalType": "address",
          "name": "",
          "type": "address"
        }
      ],
      "stateMutability": "view",
      "type": "function"
    },
    {
      "inputs": [],
      "name": "paused",
      "outputs": [
        {
          "internalType": "bool",
          "name": "",
          "type": "bool"
        }
      ],
      "stateMutability": "view",
      "type": "function"
    },
    {
      "inputs": [],
      "name": "renounceOwnership",
      "outputs": [],
      "stateMutability": "nonpayable",
      "type": "function"
    },
    {
      "inputs": [
        {
          "internalType": "address",
          "name": "from",
          "type": "address"
        },
        {
          "internalType": "address",
          "name": "to",
          "type": "address"
        },
        {
          "internalType": "uint256",
          "name": "tokenId",
          "type": "uint256"
        }
      ],
      "name": "safeTransferFrom",
      "outputs": [],
      "stateMutability": "nonpayable",
      "type": "function"
    },
    {
      "inputs": [
        {
          "internalType": "address",
          "name": "from",
          "type": "address"
        },
        {
          "internalType": "address",
          "name": "to",
          "type": "address"
        },
        {
          "internalType": "uint256",
          "name": "tokenId",
          "type": "uint256"
        },
        {
          "internalType": "bytes",
          "name": "_data",
          "type": "bytes"
        }
      ],
      "name": "safeTransferFrom",
      "outputs": [],
      "stateMutability": "nonpayable",
      "type": "function"
    },
    {
      "inputs": [
        {
          "internalType": "address",
          "name": "operator",
          "type": "address"
        },
        {
          "internalType": "bool",
          "name": "approved",
          "type": "bool"
        }
      ],
      "name": "setApprovalForAll",
      "outputs": [],
      "stateMutability": "nonpayable",
      "type": "function"
    },
    {
      "inputs": [
        {
          "internalType": "bytes4",
          "name": "interfaceId",
          "type": "bytes4"
        }
      ],
      "name": "supportsInterface",
      "outputs": [
        {
          "internalType": "bool",
          "name": "",
          "type": "bool"
        }
      ],
      "stateMutability": "view",
      "type": "function"
    },
    {
      "inputs": [],
      "name": "symbol",
      "outputs": [
        {
          "internalType": "string",
          "name": "",
          "type": "string"
        }
      ],
      "stateMutability": "view",
      "type": "function"
    },
    {
      "inputs": [
        {
          "internalType": "address",
          "name": "from",
          "type": "address"
        },
        {
          "internalType": "address",
          "name": "to",
          "type": "address"
        },
        {
          "internalType": "uint256",
          "name": "tokenId",
          "type": "uint256"
        }
      ],
      "name": "transferFrom",
      "outputs": [],
      "stateMutability": "nonpayable",
      "type": "function"
    },
    {
      "inputs": [
        {
          "internalType": "address",
          "name": "newOwner",
          "type": "address"
        }
      ],
      "name": "transferOwnership",
      "outputs": [],
      "stateMutability": "nonpayable",
      "type": "function"
    },
    {
      "inputs": [],
      "name": "pause",
      "outputs": [],
      "stateMutability": "nonpayable",
      "type": "function"
    },
    {
      "inputs": [],
      "name": "unpause",
      "outputs": [],
      "stateMutability": "nonpayable",
      "type": "function"
    },
    {
      "inputs": [
        {
          "internalType": "address",
          "name": "to",
          "type": "address"
        },
        {
          "internalType": "string",
          "name": "uri",
          "type": "string"
        }
      ],
      "name": "safeMint",
      "outputs": [],
      "stateMutability": "nonpayable",
      "type": "function"
    },
    {
      "inputs": [
        {
          "internalType": "uint256",
          "name": "tokenId",
          "type": "uint256"
        }
      ],
      "name": "tokenURI",
      "outputs": [
        {
          "internalType": "string",
          "name": "",
          "type": "string"
        }
      ],
      "stateMutability": "view",
      "type": "function"
    }
  ],
  "bytecode": "0x60806040523480156200001157600080fd5b506040518060400160405280600781526020017f4d79546f6b656e000000000000000000000000000000000000000000000000008152506040518060400160405280600381526020017f4d544b0000000000000000000000000000000000000000000000000000000000815250816000908051906020019062000096929190620001c1565b508060019080519060200190620000af929190620001c1565b5050506000600760006101000a81548160ff021916908315150217905550620000ed620000e1620000f360201b60201c565b620000fb60201b60201c565b620002d6565b600033905090565b6000600760019054906101000a900473ffffffffffffffffffffffffffffffffffffffff16905081600760016101000a81548173ffffffffffffffffffffffffffffffffffffffff021916908373ffffffffffffffffffffffffffffffffffffffff1602179055508173ffffffffffffffffffffffffffffffffffffffff168173ffffffffffffffffffffffffffffffffffffffff167f8be0079c531659141344cd1fd0a4f28419497f9722a3daafe3b4186f6b6457e060405160405180910390a35050565b828054620001cf90620002a0565b90600052602060002090601f016020900481019282620001f357600085556200023f565b82601f106200020e57805160ff19168380011785556200023f565b828001600101855582156200023f579182015b828111156200023e57825182559160200191906001019062000221565b5b5090506200024e919062000252565b5090565b5b808211156200026d57600081600090555060010162000253565b5090565b7f4e487b7100000000000000000000000000000000000000000000000000000000600052602260045260246000fd5b60006002820490506001821680620002b957607f821691505b60208210811415620002d057620002cf62000271565b5b50919050565b61344080620002e66000396000f3fe608060405234801561001057600080fd5b506004361061012c5760003560e01c8063715018a6116100ad578063b88d4fde11610071578063b88d4fde146102f7578063c87b56dd14610313578063d204c45e14610343578063e985e9c51461035f578063f2fde38b1461038f5761012c565b8063715018a61461028b5780638456cb59146102955780638da5cb5b1461029f57806395d89b41146102bd578063a22cb465146102db5761012c565b80633f4ba83a116100f45780633f4ba83a146101e757806342842e0e146101f15780635c975abb1461020d5780636352211e1461022b57806370a082311461025b5761012c565b806301ffc9a71461013157806306fdde0314610161578063081812fc1461017f578063095ea7b3146101af57806323b872dd146101cb575b600080fd5b61014b60048036038101906101469190611fcc565b6103ab565b6040516101589190612014565b60405180910390f35b61016961048d565b60405161017691906120c8565b60405180910390f35b61019960048036038101906101949190612120565b61051f565b6040516101a6919061218e565b60405180910390f35b6101c960048036038101906101c491906121d5565b6105a4565b005b6101e560048036038101906101e09190612215565b6106bc565b005b6101ef61071c565b005b61020b60048036038101906102069190612215565b6107a2565b005b6102156107c2565b6040516102229190612014565b60405180910390f35b61024560048036038101906102409190612120565b6107d9565b604051610252919061218e565b60405180910390f35b61027560048036038101906102709190612268565b61088b565b60405161028291906122a4565b60405180910390f35b610293610943565b005b61029d6109cb565b005b6102a7610a51565b6040516102b4919061218e565b60405180910390f35b6102c5610a7b565b6040516102d291906120c8565b60405180910390f35b6102f560048036038101906102f091906122eb565b610b0d565b005b610311600480360381019061030c9190612460565b610b23565b005b61032d60048036038101906103289190612120565b610b85565b60405161033a91906120c8565b60405180910390f35b61035d60048036038101906103589190612584565b610b97565b005b610379600480360381019061037491906125e0565b610c44565b6040516103869190612014565b60405180910390f35b6103a960048036038101906103a49190612268565b610cd8565b005b60007f80ac58cd000000000000000000000000000000000000000000000000000000007bffffffffffffffffffffffffffffffffffffffffffffffffffffffff1916827bffffffffffffffffffffffffffffffffffffffffffffffffffffffff1916148061047657507f5b5e139f000000000000000000000000000000000000000000000000000000007bffffffffffffffffffffffffffffffffffffffffffffffffffffffff1916827bffffffffffffffffffffffffffffffffffffffffffffffffffffffff1916145b80610486575061048582610dd0565b5b9050919050565b60606000805461049c9061264f565b80601f01602080910402602001604051908101604052809291908181526020018280546104c89061264f565b80156105155780601f106104ea57610100808354040283529160200191610515565b820191906000526020600020905b8154815290600101906020018083116104f857829003601f168201915b5050505050905090565b600061052a82610e3a565b610569576040517f08c379a0000000000000000000000000000000000000000000000000000000008152600401610560906126f3565b60405180910390fd5b6004600083815260200190815260200160002060009054906101000a900473ffffffffffffffffffffffffffffffffffffffff169050919050565b60006105af826107d9565b90508073ffffffffffffffffffffffffffffffffffffffff168373ffffffffffffffffffffffffffffffffffffffff161415610620576040517f08c379a000000000000000000000000000000000000000000000000000000000815260040161061790612785565b60405180910390fd5b8073ffffffffffffffffffffffffffffffffffffffff1661063f610ea6565b73ffffffffffffffffffffffffffffffffffffffff16148061066e575061066d81610668610ea6565b610c44565b5b6106ad576040517f08c379a00000000000000000000000000000000000000000000000000000000081526004016106a490612817565b60405180910390fd5b6106b78383610eae565b505050565b6106cd6106c7610ea6565b82610f67565b61070c576040517f08c379a0000000000000000000000000000000000000000000000000000000008152600401610703906128a9565b60405180910390fd5b610717838383611045565b505050565b610724610ea6565b73ffffffffffffffffffffffffffffffffffffffff16610742610a51565b73ffffffffffffffffffffffffffffffffffffffff1614610798576040517f08c379a000000000000000000000000000000000000000000000000000000000815260040161078f90612915565b60405180910390fd5b6107a06112a1565b565b6107bd83838360405180602001604052806000815250610b23565b505050565b6000600760009054906101000a900460ff16905090565b6000806002600084815260200190815260200160002060009054906101000a900473ffffffffffffffffffffffffffffffffffffffff169050600073ffffffffffffffffffffffffffffffffffffffff168173ffffffffffffffffffffffffffffffffffffffff161415610882576040517f08c379a0000000000000000000000000000000000000000000000000000000008152600401610879906129a7565b60405180910390fd5b80915050919050565b60008073ffffffffffffffffffffffffffffffffffffffff168273ffffffffffffffffffffffffffffffffffffffff1614156108fc576040517f08c379a00000000000000000000000000000000000000000000000000000000081526004016108f390612a39565b60405180910390fd5b600360008373ffffffffffffffffffffffffffffffffffffffff1673ffffffffffffffffffffffffffffffffffffffff168152602001908152602001600020549050919050565b61094b610ea6565b73ffffffffffffffffffffffffffffffffffffffff16610969610a51565b73ffffffffffffffffffffffffffffffffffffffff16146109bf576040517f08c379a00000000000000000000000000000000000000000000000000000000081526004016109b690612915565b60405180910390fd5b6109c96000611343565b565b6109d3610ea6565b73ffffffffffffffffffffffffffffffffffffffff166109f1610a51565b73ffffffffffffffffffffffffffffffffffffffff1614610a47576040517f08c379a0000000000000000000000000000000000000000000000000000000008152600401610a3e90612915565b60405180910390fd5b610a4f611409565b565b6000600760019054906101000a900473ffffffffffffffffffffffffffffffffffffffff16905090565b606060018054610a8a9061264f565b80601f0160208091040260200160405190810160405280929190818152602001828054610ab69061264f565b8015610b035780601f10610ad857610100808354040283529160200191610b03565b820191906000526020600020905b815481529060010190602001808311610ae657829003601f168201915b5050505050905090565b610b1f610b18610ea6565b83836114ac565b5050565b610b34610b2e610ea6565b83610f67565b610b73576040517f08c379a0000000000000000000000000000000000000000000000000000000008152600401610b6a906128a9565b60405180910390fd5b610b7f84848484611619565b50505050565b6060610b9082611675565b9050919050565b610b9f610ea6565b73ffffffffffffffffffffffffffffffffffffffff16610bbd610a51565b73ffffffffffffffffffffffffffffffffffffffff1614610c13576040517f08c379a0000000000000000000000000000000000000000000000000000000008152600401610c0a90612915565b60405180910390fd5b6000610c1f60086117c7565b9050610c2b60086117d5565b610c3583826117eb565b610c3f8183611809565b505050565b6000600560008473ffffffffffffffffffffffffffffffffffffffff1673ffffffffffffffffffffffffffffffffffffffff16815260200190815260200160002060008373ffffffffffffffffffffffffffffffffffffffff1673ffffffffffffffffffffffffffffffffffffffff16815260200190815260200160002060009054906101000a900460ff16905092915050565b610ce0610ea6565b73ffffffffffffffffffffffffffffffffffffffff16610cfe610a51565b73ffffffffffffffffffffffffffffffffffffffff1614610d54576040517f08c379a0000000000000000000000000000000000000000000000000000000008152600401610d4b90612915565b60405180910390fd5b600073ffffffffffffffffffffffffffffffffffffffff168173ffffffffffffffffffffffffffffffffffffffff161415610dc4576040517f08c379a0000000000000000000000000000000000000000000000000000000008152600401610dbb90612acb565b60405180910390fd5b610dcd81611343565b50565b60007f01ffc9a7000000000000000000000000000000000000000000000000000000007bffffffffffffffffffffffffffffffffffffffffffffffffffffffff1916827bffffffffffffffffffffffffffffffffffffffffffffffffffffffff1916149050919050565b60008073ffffffffffffffffffffffffffffffffffffffff166002600084815260200190815260200160002060009054906101000a900473ffffffffffffffffffffffffffffffffffffffff1673ffffffffffffffffffffffffffffffffffffffff1614159050919050565b600033905090565b816004600083815260200190815260200160002060006101000a81548173ffffffffffffffffffffffffffffffffffffffff021916908373ffffffffffffffffffffffffffffffffffffffff160217905550808273ffffffffffffffffffffffffffffffffffffffff16610f21836107d9565b73ffffffffffffffffffffffffffffffffffffffff167f8c5be1e5ebec7d5bd14f71427d1e84f3dd0314c0f7b2291e5b200ac8c7c3b92560405160405180910390a45050565b6000610f7282610e3a565b610fb1576040517f08c379a0000000000000000000000000000000000000000000000000000000008152600401610fa890612b5d565b60405180910390fd5b6000610fbc836107d9565b90508073ffffffffffffffffffffffffffffffffffffffff168473ffffffffffffffffffffffffffffffffffffffff16148061102b57508373ffffffffffffffffffffffffffffffffffffffff166110138461051f565b73ffffffffffffffffffffffffffffffffffffffff16145b8061103c575061103b8185610c44565b5b91505092915050565b8273ffffffffffffffffffffffffffffffffffffffff16611065826107d9565b73ffffffffffffffffffffffffffffffffffffffff16146110bb576040517f08c379a00000000000000000000000000000000000000000000000000000000081526004016110b290612bef565b60405180910390fd5b600073ffffffffffffffffffffffffffffffffffffffff168273ffffffffffffffffffffffffffffffffffffffff16141561112b576040517f08c379a000000000000000000000000000000000000000000000000000000000815260040161112290612c81565b60405180910390fd5b61113683838361187d565b611141600082610eae565b6001600360008573ffffffffffffffffffffffffffffffffffffffff1673ffffffffffffffffffffffffffffffffffffffff16815260200190815260200160002060008282546111919190612cd0565b925050819055506001600360008473ffffffffffffffffffffffffffffffffffffffff1673ffffffffffffffffffffffffffffffffffffffff16815260200190815260200160002060008282546111e89190612d04565b92505081905550816002600083815260200190815260200160002060006101000a81548173ffffffffffffffffffffffffffffffffffffffff021916908373ffffffffffffffffffffffffffffffffffffffff160217905550808273ffffffffffffffffffffffffffffffffffffffff168473ffffffffffffffffffffffffffffffffffffffff167fddf252ad1be2c89b69c2b068fc378daa952ba7f163c4a11628f55a4df523b3ef60405160405180910390a4505050565b6112a96107c2565b6112e8576040517f08c379a00000000000000000000000000000000000000000000000000000000081526004016112df90612da6565b60405180910390fd5b6000600760006101000a81548160ff0219169083151502179055507f5db9ee0a495bf2e6ff9c91a7834c1ba4fdd244a5e8aa4e537bd38aeae4b073aa61132c610ea6565b604051611339919061218e565b60405180910390a1565b6000600760019054906101000a900473ffffffffffffffffffffffffffffffffffffffff16905081600760016101000a81548173ffffffffffffffffffffffffffffffffffffffff021916908373ffffffffffffffffffffffffffffffffffffffff1602179055508173ffffffffffffffffffffffffffffffffffffffff168173ffffffffffffffffffffffffffffffffffffffff167f8be0079c531659141344cd1fd0a4f28419497f9722a3daafe3b4186f6b6457e060405160405180910390a35050565b6114116107c2565b15611451576040517f08c379a000000000000000000000000000000000000000000000000000000000815260040161144890612e12565b60405180910390fd5b6001600760006101000a81548160ff0219169083151502179055507f62e78cea01bee320cd4e420270b5ea74000d11b0c9f74754ebdbfc544b05a258611495610ea6565b6040516114a2919061218e565b60405180910390a1565b8173ffffffffffffffffffffffffffffffffffffffff168373ffffffffffffffffffffffffffffffffffffffff16141561151b576040517f08c379a000000000000000000000000000000000000000000000000000000000815260040161151290612e7e565b60405180910390fd5b80600560008573ffffffffffffffffffffffffffffffffffffffff1673ffffffffffffffffffffffffffffffffffffffff16815260200190815260200160002060008473ffffffffffffffffffffffffffffffffffffffff1673ffffffffffffffffffffffffffffffffffffffff16815260200190815260200160002060006101000a81548160ff0219169083151502179055508173ffffffffffffffffffffffffffffffffffffffff168373ffffffffffffffffffffffffffffffffffffffff167f17307eab39ab6107e8899845ad3d59bd9653f200f220920489ca2b5937696c318360405161160c9190612014565b60405180910390a3505050565b611624848484611045565b611630848484846118d5565b61166f576040517f08c379a000000000000000000000000000000000000000000000000000000000815260040161166690612f10565b60405180910390fd5b50505050565b606061168082610e3a565b6116bf576040517f08c379a00000000000000000000000000000000000000000000000000000000081526004016116b690612fa2565b60405180910390fd5b60006006600084815260200190815260200160002080546116df9061264f565b80601f016020809104026020016040519081016040528092919081815260200182805461170b9061264f565b80156117585780601f1061172d57610100808354040283529160200191611758565b820191906000526020600020905b81548152906001019060200180831161173b57829003601f168201915b505050505090506000611769611a5d565b905060008151141561177f5781925050506117c2565b6000825111156117b457808260405160200161179c929190612ffe565b604051602081830303815290604052925050506117c2565b6117bd84611a74565b925050505b919050565b600081600001549050919050565b6001816000016000828254019250508190555050565b611805828260405180602001604052806000815250611b1b565b5050565b61181282610e3a565b611851576040517f08c379a000000000000000000000000000000000000000000000000000000000815260040161184890613094565b60405180910390fd5b80600660008481526020019081526020016000209080519060200190611878929190611ebd565b505050565b6118856107c2565b156118c5576040517f08c379a00000000000000000000000000000000000000000000000000000000081526004016118bc90612e12565b60405180910390fd5b6118d0838383611b76565b505050565b60006118f68473ffffffffffffffffffffffffffffffffffffffff16611b7b565b15611a50578373ffffffffffffffffffffffffffffffffffffffff1663150b7a0261191f610ea6565b8786866040518563ffffffff1660e01b81526004016119419493929190613109565b6020604051808303816000875af192505050801561197d57506040513d601f19601f8201168201806040525081019061197a919061316a565b60015b611a00573d80600081146119ad576040519150601f19603f3d011682016040523d82523d6000602084013e6119b2565b606091505b506000815114156119f8576040517f08c379a00000000000000000000000000000000000000000000000000000000081526004016119ef90612f10565b60405180910390fd5b805181602001fd5b63150b7a0260e01b7bffffffffffffffffffffffffffffffffffffffffffffffffffffffff1916817bffffffffffffffffffffffffffffffffffffffffffffffffffffffff191614915050611a55565b600190505b949350505050565b606060405180602001604052806000815250905090565b6060611a7f82610e3a565b611abe576040517f08c379a0000000000000000000000000000000000000000000000000000000008152600401611ab590613209565b60405180910390fd5b6000611ac8611a5d565b90506000815111611ae85760405180602001604052806000815250611b13565b80611af284611b8e565b604051602001611b03929190612ffe565b6040516020818303038152906040525b915050919050565b611b258383611cef565b611b3260008484846118d5565b611b71576040517f08c379a0000000000000000000000000000000000000000000000000000000008152600401611b6890612f10565b60405180910390fd5b505050565b505050565b600080823b905060008111915050919050565b60606000821415611bd6576040518060400160405280600181526020017f30000000000000000000000000000000000000000000000000000000000000008152509050611cea565b600082905060005b60008214611c08578080611bf190613229565b915050600a82611c0191906132a1565b9150611bde565b60008167ffffffffffffffff811115611c2457611c23612335565b5b6040519080825280601f01601f191660200182016040528015611c565781602001600182028036833780820191505090505b5090505b60008514611ce357600182611c6f9190612cd0565b9150600a85611c7e91906132d2565b6030611c8a9190612d04565b60f81b818381518110611ca057611c9f613303565b5b60200101907effffffffffffffffffffffffffffffffffffffffffffffffffffffffffffff1916908160001a905350600a85611cdc91906132a1565b9450611c5a565b8093505050505b919050565b600073ffffffffffffffffffffffffffffffffffffffff168273ffffffffffffffffffffffffffffffffffffffff161415611d5f576040517f08c379a0000000000000000000000000000000000000000000000000000000008152600401611d569061337e565b60405180910390fd5b611d6881610e3a565b15611da8576040517f08c379a0000000000000000000000000000000000000000000000000000000008152600401611d9f906133ea565b60405180910390fd5b611db46000838361187d565b6001600360008473ffffffffffffffffffffffffffffffffffffffff1673ffffffffffffffffffffffffffffffffffffffff1681526020019081526020016000206000828254611e049190612d04565b92505081905550816002600083815260200190815260200160002060006101000a81548173ffffffffffffffffffffffffffffffffffffffff021916908373ffffffffffffffffffffffffffffffffffffffff160217905550808273ffffffffffffffffffffffffffffffffffffffff16600073ffffffffffffffffffffffffffffffffffffffff167fddf252ad1be2c89b69c2b068fc378daa952ba7f163c4a11628f55a4df523b3ef60405160405180910390a45050565b828054611ec99061264f565b90600052602060002090601f016020900481019282611eeb5760008555611f32565b82601f10611f0457805160ff1916838001178555611f32565b82800160010185558215611f32579182015b82811115611f31578251825591602001919060010190611f16565b5b509050611f3f9190611f43565b5090565b5b80821115611f5c576000816000905550600101611f44565b5090565b6000604051905090565b600080fd5b600080fd5b60007fffffffff0000000000000000000000000000000000000000000000000000000082169050919050565b611fa981611f74565b8114611fb457600080fd5b50565b600081359050611fc681611fa0565b92915050565b600060208284031215611fe257611fe1611f6a565b5b6000611ff084828501611fb7565b91505092915050565b60008115159050919050565b61200e81611ff9565b82525050565b60006020820190506120296000830184612005565b92915050565b600081519050919050565b600082825260208201905092915050565b60005b8381101561206957808201518184015260208101905061204e565b83811115612078576000848401525b50505050565b6000601f19601f8301169050919050565b600061209a8261202f565b6120a4818561203a565b93506120b481856020860161204b565b6120bd8161207e565b840191505092915050565b600060208201905081810360008301526120e2818461208f565b905092915050565b6000819050919050565b6120fd816120ea565b811461210857600080fd5b50565b60008135905061211a816120f4565b92915050565b60006020828403121561213657612135611f6a565b5b60006121448482850161210b565b91505092915050565b600073ffffffffffffffffffffffffffffffffffffffff82169050919050565b60006121788261214d565b9050919050565b6121888161216d565b82525050565b60006020820190506121a3600083018461217f565b92915050565b6121b28161216d565b81146121bd57600080fd5b50565b6000813590506121cf816121a9565b92915050565b600080604083850312156121ec576121eb611f6a565b5b60006121fa858286016121c0565b925050602061220b8582860161210b565b9150509250929050565b60008060006060848603121561222e5761222d611f6a565b5b600061223c868287016121c0565b935050602061224d868287016121c0565b925050604061225e8682870161210b565b9150509250925092565b60006020828403121561227e5761227d611f6a565b5b600061228c848285016121c0565b91505092915050565b61229e816120ea565b82525050565b60006020820190506122b96000830184612295565b92915050565b6122c881611ff9565b81146122d357600080fd5b50565b6000813590506122e5816122bf565b92915050565b6000806040838503121561230257612301611f6a565b5b6000612310858286016121c0565b9250506020612321858286016122d6565b9150509250929050565b600080fd5b600080fd5b7f4e487b7100000000000000000000000000000000000000000000000000000000600052604160045260246000fd5b61236d8261207e565b810181811067ffffffffffffffff8211171561238c5761238b612335565b5b80604052505050565b600061239f611f60565b90506123ab8282612364565b919050565b600067ffffffffffffffff8211156123cb576123ca612335565b5b6123d48261207e565b9050602081019050919050565b82818337600083830152505050565b60006124036123fe846123b0565b612395565b90508281526020810184848401111561241f5761241e612330565b5b61242a8482856123e1565b509392505050565b600082601f8301126124475761244661232b565b5b81356124578482602086016123f0565b91505092915050565b6000806000806080858703121561247a57612479611f6a565b5b6000612488878288016121c0565b9450506020612499878288016121c0565b93505060406124aa8782880161210b565b925050606085013567ffffffffffffffff8111156124cb576124ca611f6f565b5b6124d787828801612432565b91505092959194509250565b600067ffffffffffffffff8211156124fe576124fd612335565b5b6125078261207e565b9050602081019050919050565b6000612527612522846124e3565b612395565b90508281526020810184848401111561254357612542612330565b5b61254e8482856123e1565b509392505050565b600082601f83011261256b5761256a61232b565b5b813561257b848260208601612514565b91505092915050565b6000806040838503121561259b5761259a611f6a565b5b60006125a9858286016121c0565b925050602083013567ffffffffffffffff8111156125ca576125c9611f6f565b5b6125d685828601612556565b9150509250929050565b600080604083850312156125f7576125f6611f6a565b5b6000612605858286016121c0565b9250506020612616858286016121c0565b9150509250929050565b7f4e487b7100000000000000000000000000000000000000000000000000000000600052602260045260246000fd5b6000600282049050600182168061266757607f821691505b6020821081141561267b5761267a612620565b5b50919050565b7f4552433732313a20617070726f76656420717565727920666f72206e6f6e657860008201527f697374656e7420746f6b656e0000000000000000000000000000000000000000602082015250565b60006126dd602c8361203a565b91506126e882612681565b604082019050919050565b6000602082019050818103600083015261270c816126d0565b9050919050565b7f4552433732313a20617070726f76616c20746f2063757272656e74206f776e6560008201527f7200000000000000000000000000000000000000000000000000000000000000602082015250565b600061276f60218361203a565b915061277a82612713565b604082019050919050565b6000602082019050818103600083015261279e81612762565b9050919050565b7f4552433732313a20617070726f76652063616c6c6572206973206e6f74206f7760008201527f6e6572206e6f7220617070726f76656420666f7220616c6c0000000000000000602082015250565b600061280160388361203a565b915061280c826127a5565b604082019050919050565b60006020820190508181036000830152612830816127f4565b9050919050565b7f4552433732313a207472616e736665722063616c6c6572206973206e6f74206f60008201527f776e6572206e6f7220617070726f766564000000000000000000000000000000602082015250565b600061289360318361203a565b915061289e82612837565b604082019050919050565b600060208201905081810360008301526128c281612886565b9050919050565b7f4f776e61626c653a2063616c6c6572206973206e6f7420746865206f776e6572600082015250565b60006128ff60208361203a565b915061290a826128c9565b602082019050919050565b6000602082019050818103600083015261292e816128f2565b9050919050565b7f4552433732313a206f776e657220717565727920666f72206e6f6e657869737460008201527f656e7420746f6b656e0000000000000000000000000000000000000000000000602082015250565b600061299160298361203a565b915061299c82612935565b604082019050919050565b600060208201905081810360008301526129c081612984565b9050919050565b7f4552433732313a2062616c616e636520717565727920666f7220746865207a6560008201527f726f206164647265737300000000000000000000000000000000000000000000602082015250565b6000612a23602a8361203a565b9150612a2e826129c7565b604082019050919050565b60006020820190508181036000830152612a5281612a16565b9050919050565b7f4f776e61626c653a206e6577206f776e657220697320746865207a65726f206160008201527f6464726573730000000000000000000000000000000000000000000000000000602082015250565b6000612ab560268361203a565b9150612ac082612a59565b604082019050919050565b60006020820190508181036000830152612ae481612aa8565b9050919050565b7f4552433732313a206f70657261746f7220717565727920666f72206e6f6e657860008201527f697374656e7420746f6b656e0000000000000000000000000000000000000000602082015250565b6000612b47602c8361203a565b9150612b5282612aeb565b604082019050919050565b60006020820190508181036000830152612b7681612b3a565b9050919050565b7f4552433732313a207472616e73666572206f6620746f6b656e2074686174206960008201527f73206e6f74206f776e0000000000000000000000000000000000000000000000602082015250565b6000612bd960298361203a565b9150612be482612b7d565b604082019050919050565b60006020820190508181036000830152612c0881612bcc565b9050919050565b7f4552433732313a207472616e7366657220746f20746865207a65726f2061646460008201527f7265737300000000000000000000000000000000000000000000000000000000602082015250565b6000612c6b60248361203a565b9150612c7682612c0f565b604082019050919050565b60006020820190508181036000830152612c9a81612c5e565b9050919050565b7f4e487b7100000000000000000000000000000000000000000000000000000000600052601160045260246000fd5b6000612cdb826120ea565b9150612ce6836120ea565b925082821015612cf957612cf8612ca1565b5b828203905092915050565b6000612d0f826120ea565b9150612d1a836120ea565b9250827fffffffffffffffffffffffffffffffffffffffffffffffffffffffffffffffff03821115612d4f57612d4e612ca1565b5b828201905092915050565b7f5061757361626c653a206e6f7420706175736564000000000000000000000000600082015250565b6000612d9060148361203a565b9150612d9b82612d5a565b602082019050919050565b60006020820190508181036000830152612dbf81612d83565b9050919050565b7f5061757361626c653a2070617573656400000000000000000000000000000000600082015250565b6000612dfc60108361203a565b9150612e0782612dc6565b602082019050919050565b60006020820190508181036000830152612e2b81612def565b9050919050565b7f4552433732313a20617070726f766520746f2063616c6c657200000000000000600082015250565b6000612e6860198361203a565b9150612e7382612e32565b602082019050919050565b60006020820190508181036000830152612e9781612e5b565b9050919050565b7f4552433732313a207472616e7366657220746f206e6f6e20455243373231526560008201527f63656976657220696d706c656d656e7465720000000000000000000000000000602082015250565b6000612efa60328361203a565b9150612f0582612e9e565b604082019050919050565b60006020820190508181036000830152612f2981612eed565b9050919050565b7f45524337323155524953746f726167653a2055524920717565727920666f722060008201527f6e6f6e6578697374656e7420746f6b656e000000000000000000000000000000602082015250565b6000612f8c60318361203a565b9150612f9782612f30565b604082019050919050565b60006020820190508181036000830152612fbb81612f7f565b9050919050565b600081905092915050565b6000612fd88261202f565b612fe28185612fc2565b9350612ff281856020860161204b565b80840191505092915050565b600061300a8285612fcd565b91506130168284612fcd565b91508190509392505050565b7f45524337323155524953746f726167653a2055524920736574206f66206e6f6e60008201527f6578697374656e7420746f6b656e000000000000000000000000000000000000602082015250565b600061307e602e8361203a565b915061308982613022565b604082019050919050565b600060208201905081810360008301526130ad81613071565b9050919050565b600081519050919050565b600082825260208201905092915050565b60006130db826130b4565b6130e581856130bf565b93506130f581856020860161204b565b6130fe8161207e565b840191505092915050565b600060808201905061311e600083018761217f565b61312b602083018661217f565b6131386040830185612295565b818103606083015261314a81846130d0565b905095945050505050565b60008151905061316481611fa0565b92915050565b6000602082840312156131805761317f611f6a565b5b600061318e84828501613155565b91505092915050565b7f4552433732314d657461646174613a2055524920717565727920666f72206e6f60008201527f6e6578697374656e7420746f6b656e0000000000000000000000000000000000602082015250565b60006131f3602f8361203a565b91506131fe82613197565b604082019050919050565b60006020820190508181036000830152613222816131e6565b9050919050565b6000613234826120ea565b91507fffffffffffffffffffffffffffffffffffffffffffffffffffffffffffffffff82141561326757613266612ca1565b5b600182019050919050565b7f4e487b7100000000000000000000000000000000000000000000000000000000600052601260045260246000fd5b60006132ac826120ea565b91506132b7836120ea565b9250826132c7576132c6613272565b5b828204905092915050565b60006132dd826120ea565b91506132e8836120ea565b9250826132f8576132f7613272565b5b828206905092915050565b7f4e487b7100000000000000000000000000000000000000000000000000000000600052603260045260246000fd5b7f4552433732313a206d696e7420746f20746865207a65726f2061646472657373600082015250565b600061336860208361203a565b915061337382613332565b602082019050919050565b600060208201905081810360008301526133978161335b565b9050919050565b7f4552433732313a20746f6b656e20616c7265616479206d696e74656400000000600082015250565b60006133d4601c8361203a565b91506133df8261339e565b602082019050919050565b60006020820190508181036000830152613403816133c7565b905091905056fea26469706673582212200ddd7dc34e6d69ef7a2bbb55e02869f1089a306697be1b07a7decf6ddce624d764736f6c634300080b0033",
  "immutableReferences": {},
  "source": "// SPDX-License-Identifier: MIT\npragma solidity ^0.8.2;\n\nimport \"@openzeppelin/contracts/token/ERC721/ERC721.sol\";\nimport \"@openzeppelin/contracts/token/ERC721/extensions/ERC721URIStorage.sol\";\nimport \"@openzeppelin/contracts/security/Pausable.sol\";\nimport \"@openzeppelin/contracts/access/Ownable.sol\";\nimport \"@openzeppelin/contracts/utils/Counters.sol\";\n\n/// @custom:security-contact gregorionicolasgerardi@gmail.com\ncontract MyToken is ERC721, ERC721URIStorage, Pausable, Ownable {\n    using Counters for Counters.Counter;\n\n    Counters.Counter private _tokenIdCounter;\n\n    constructor() ERC721(\"MyToken\", \"MTK\") {}\n\n    function pause() public onlyOwner {\n        _pause();\n    }\n\n    function unpause() public onlyOwner {\n        _unpause();\n    }\n\n    function safeMint(address to, string memory uri) public onlyOwner {\n        uint256 tokenId = _tokenIdCounter.current();\n        _tokenIdCounter.increment();\n        _safeMint(to, tokenId);\n        _setTokenURI(tokenId, uri);\n    }\n\n    function _beforeTokenTransfer(address from, address to, uint256 tokenId)\n    internal\n    whenNotPaused\n    override\n    {\n        super._beforeTokenTransfer(from, to, tokenId);\n    }\n\n    // The following functions are overrides required by Solidity.\n\n    function _burn(uint256 tokenId) internal override(ERC721, ERC721URIStorage) {\n        super._burn(tokenId);\n    }\n\n    function tokenURI(uint256 tokenId)\n    public\n    view\n    override(ERC721, ERC721URIStorage)\n    returns (string memory)\n    {\n        return super.tokenURI(tokenId);\n    }\n}\n",
  "sourcePath": "/Users/gregorio/Documents/Solidity/contracts/NFT.sol",
  "compiler": {
    "name": "solc",
    "version": "0.8.11+commit.d7f03943.Emscripten.clang"
  },
  "schemaVersion": "3.4.4",
  "updatedAt": "2022-02-08T23:54:38.763Z",
  "devdoc": {
    "custom:security-contact": "gregorionicolasgerardi@gmail.com",
    "kind": "dev",
    "methods": {
      "approve(address,uint256)": {
        "details": "See {IERC721-approve}."
      },
      "balanceOf(address)": {
        "details": "See {IERC721-balanceOf}."
      },
      "getApproved(uint256)": {
        "details": "See {IERC721-getApproved}."
      },
      "isApprovedForAll(address,address)": {
        "details": "See {IERC721-isApprovedForAll}."
      },
      "name()": {
        "details": "See {IERC721Metadata-name}."
      },
      "owner()": {
        "details": "Returns the address of the current owner."
      },
      "ownerOf(uint256)": {
        "details": "See {IERC721-ownerOf}."
      },
      "paused()": {
        "details": "Returns true if the contract is paused, and false otherwise."
      },
      "renounceOwnership()": {
        "details": "Leaves the contract without owner. It will not be possible to call `onlyOwner` functions anymore. Can only be called by the current owner. NOTE: Renouncing ownership will leave the contract without an owner, thereby removing any functionality that is only available to the owner."
      },
      "safeTransferFrom(address,address,uint256)": {
        "details": "See {IERC721-safeTransferFrom}."
      },
      "safeTransferFrom(address,address,uint256,bytes)": {
        "details": "See {IERC721-safeTransferFrom}."
      },
      "setApprovalForAll(address,bool)": {
        "details": "See {IERC721-setApprovalForAll}."
      },
      "supportsInterface(bytes4)": {
        "details": "See {IERC165-supportsInterface}."
      },
      "symbol()": {
        "details": "See {IERC721Metadata-symbol}."
      },
      "transferFrom(address,address,uint256)": {
        "details": "See {IERC721-transferFrom}."
      },
      "transferOwnership(address)": {
        "details": "Transfers ownership of the contract to a new account (`newOwner`). Can only be called by the current owner."
      }
    },
    "version": 1
  },
  "userdoc": {
    "kind": "user",
    "methods": {},
    "version": 1
  }
}